{
  "_format": "hh-sol-artifact-1",
  "contractName": "Registry",
  "sourceName": "contracts/Registry.sol",
  "abi": [
    {
      "inputs": [],
      "stateMutability": "nonpayable",
      "type": "constructor"
    },
    {
      "anonymous": false,
      "inputs": [
        {
          "indexed": true,
          "internalType": "address",
          "name": "account",
          "type": "address"
        },
        {
          "indexed": true,
          "internalType": "address",
          "name": "operator",
          "type": "address"
        },
        {
          "indexed": false,
          "internalType": "bool",
          "name": "approved",
          "type": "bool"
        }
      ],
      "name": "ApprovalForAll",
      "type": "event"
    },
    {
      "anonymous": false,
      "inputs": [
        {
          "indexed": true,
          "internalType": "address",
          "name": "previousOwner",
          "type": "address"
        },
        {
          "indexed": true,
          "internalType": "address",
          "name": "newOwner",
          "type": "address"
        }
      ],
      "name": "OwnershipTransferred",
      "type": "event"
    },
    {
      "anonymous": false,
      "inputs": [
        {
          "indexed": true,
          "internalType": "address",
          "name": "operator",
          "type": "address"
        },
        {
          "indexed": true,
          "internalType": "address",
          "name": "from",
          "type": "address"
        },
        {
          "indexed": true,
          "internalType": "address",
          "name": "to",
          "type": "address"
        },
        {
          "indexed": false,
          "internalType": "uint256[]",
          "name": "ids",
          "type": "uint256[]"
        },
        {
          "indexed": false,
          "internalType": "uint256[]",
          "name": "values",
          "type": "uint256[]"
        }
      ],
      "name": "TransferBatch",
      "type": "event"
    },
    {
      "anonymous": false,
      "inputs": [
        {
          "indexed": true,
          "internalType": "address",
          "name": "operator",
          "type": "address"
        },
        {
          "indexed": true,
          "internalType": "address",
          "name": "from",
          "type": "address"
        },
        {
          "indexed": true,
          "internalType": "address",
          "name": "to",
          "type": "address"
        },
        {
          "indexed": false,
          "internalType": "uint256",
          "name": "id",
          "type": "uint256"
        },
        {
          "indexed": false,
          "internalType": "uint256",
          "name": "value",
          "type": "uint256"
        }
      ],
      "name": "TransferSingle",
      "type": "event"
    },
    {
      "anonymous": false,
      "inputs": [
        {
          "indexed": false,
          "internalType": "string",
          "name": "value",
          "type": "string"
        },
        {
          "indexed": true,
          "internalType": "uint256",
          "name": "id",
          "type": "uint256"
        }
      ],
      "name": "URI",
      "type": "event"
    },
    {
      "anonymous": false,
      "inputs": [
        {
          "indexed": false,
          "internalType": "address",
          "name": "newSubRegistryAddress",
          "type": "address"
        }
      ],
      "name": "newSubRegistry",
      "type": "event"
    },
    {
      "inputs": [
        {
          "internalType": "address",
          "name": "account",
          "type": "address"
        },
        {
          "internalType": "uint256",
          "name": "id",
          "type": "uint256"
        }
      ],
      "name": "balanceOf",
      "outputs": [
        {
          "internalType": "uint256",
          "name": "",
          "type": "uint256"
        }
      ],
      "stateMutability": "view",
      "type": "function"
    },
    {
      "inputs": [
        {
          "internalType": "address[]",
          "name": "accounts",
          "type": "address[]"
        },
        {
          "internalType": "uint256[]",
          "name": "ids",
          "type": "uint256[]"
        }
      ],
      "name": "balanceOfBatch",
      "outputs": [
        {
          "internalType": "uint256[]",
          "name": "",
          "type": "uint256[]"
        }
      ],
      "stateMutability": "view",
      "type": "function"
    },
    {
      "inputs": [
        {
          "internalType": "string",
          "name": "topLevelDomain",
          "type": "string"
        }
      ],
      "name": "getRegistry",
      "outputs": [
        {
          "internalType": "address",
          "name": "",
          "type": "address"
        }
      ],
      "stateMutability": "view",
      "type": "function"
    },
    {
      "inputs": [],
      "name": "getTopLevelDomains",
      "outputs": [
        {
          "internalType": "string[]",
          "name": "",
          "type": "string[]"
        }
      ],
      "stateMutability": "view",
      "type": "function"
    },
    {
      "inputs": [
        {
          "internalType": "uint256",
          "name": "id",
          "type": "uint256"
        }
      ],
      "name": "getUri",
      "outputs": [
        {
          "internalType": "string",
          "name": "",
          "type": "string"
        }
      ],
      "stateMutability": "view",
      "type": "function"
    },
    {
      "inputs": [
        {
          "internalType": "address",
          "name": "account",
          "type": "address"
        },
        {
          "internalType": "address",
          "name": "operator",
          "type": "address"
        }
      ],
      "name": "isApprovedForAll",
      "outputs": [
        {
          "internalType": "bool",
          "name": "",
          "type": "bool"
        }
      ],
      "stateMutability": "view",
      "type": "function"
    },
    {
      "inputs": [
        {
          "internalType": "string",
          "name": "topLevelDomain",
          "type": "string"
        },
        {
          "internalType": "address",
          "name": "pricing",
          "type": "address"
        }
      ],
      "name": "mintNewSubRegistry",
      "outputs": [],
      "stateMutability": "nonpayable",
      "type": "function"
    },
    {
      "inputs": [],
      "name": "owner",
      "outputs": [
        {
          "internalType": "address",
          "name": "",
          "type": "address"
        }
      ],
      "stateMutability": "view",
      "type": "function"
    },
    {
      "inputs": [],
      "name": "renounceOwnership",
      "outputs": [],
      "stateMutability": "nonpayable",
      "type": "function"
    },
    {
      "inputs": [
        {
          "internalType": "address",
          "name": "from",
          "type": "address"
        },
        {
          "internalType": "address",
          "name": "to",
          "type": "address"
        },
        {
          "internalType": "uint256[]",
          "name": "ids",
          "type": "uint256[]"
        },
        {
          "internalType": "uint256[]",
          "name": "amounts",
          "type": "uint256[]"
        },
        {
          "internalType": "bytes",
          "name": "data",
          "type": "bytes"
        }
      ],
      "name": "safeBatchTransferFrom",
      "outputs": [],
      "stateMutability": "nonpayable",
      "type": "function"
    },
    {
      "inputs": [
        {
          "internalType": "address",
          "name": "from",
          "type": "address"
        },
        {
          "internalType": "address",
          "name": "to",
          "type": "address"
        },
        {
          "internalType": "uint256",
          "name": "id",
          "type": "uint256"
        },
        {
          "internalType": "uint256",
          "name": "amount",
          "type": "uint256"
        },
        {
          "internalType": "bytes",
          "name": "data",
          "type": "bytes"
        }
      ],
      "name": "safeTransferFrom",
      "outputs": [],
      "stateMutability": "nonpayable",
      "type": "function"
    },
    {
      "inputs": [
        {
          "internalType": "address",
          "name": "operator",
          "type": "address"
        },
        {
          "internalType": "bool",
          "name": "approved",
          "type": "bool"
        }
      ],
      "name": "setApprovalForAll",
      "outputs": [],
      "stateMutability": "nonpayable",
      "type": "function"
    },
    {
      "inputs": [
        {
          "internalType": "bytes4",
          "name": "interfaceId",
          "type": "bytes4"
        }
      ],
      "name": "supportsInterface",
      "outputs": [
        {
          "internalType": "bool",
          "name": "",
          "type": "bool"
        }
      ],
      "stateMutability": "view",
      "type": "function"
    },
    {
      "inputs": [
        {
          "internalType": "address",
          "name": "newOwner",
          "type": "address"
        }
      ],
      "name": "transferOwnership",
      "outputs": [],
      "stateMutability": "nonpayable",
      "type": "function"
    },
    {
      "inputs": [
        {
          "internalType": "uint256",
          "name": "",
          "type": "uint256"
        }
      ],
      "name": "uri",
      "outputs": [
        {
          "internalType": "string",
          "name": "",
          "type": "string"
        }
      ],
      "stateMutability": "view",
      "type": "function"
    }
  ],
  "bytecode": "0x60806040523480156200001157600080fd5b506040805160208101909152600081526200002c816200003e565b50620000383362000057565b6200018c565b805162000053906002906020840190620000a9565b5050565b600380546001600160a01b038381166001600160a01b0319831681179093556040519116919082907f8be0079c531659141344cd1fd0a4f28419497f9722a3daafe3b4186f6b6457e090600090a35050565b828054620000b7906200014f565b90600052602060002090601f016020900481019282620000db576000855562000126565b82601f10620000f657805160ff191683800117855562000126565b8280016001018555821562000126579182015b828111156200012657825182559160200191906001019062000109565b506200013492915062000138565b5090565b5b8082111562000134576000815560010162000139565b600181811c908216806200016457607f821691505b602082108114156200018657634e487b7160e01b600052602260045260246000fd5b50919050565b613f1d806200019c6000396000f3fe60806040523480156200001157600080fd5b5060043610620001085760003560e01c8063715018a611620000a3578063da0544aa116200006e578063da0544aa1462000274578063e985e9c5146200028b578063f242432a14620002ca578063f2fde38b14620002e157600080fd5b8063715018a6146200022a578063817b8b1614620002345780638da5cb5b146200024b578063a22cb465146200025d57600080fd5b80630e89341c11620000e45780630e89341c14620001785780632eb2c2d6146200019e5780634e1273f414620001b7578063617b291e14620001dd57600080fd5b8062fdd58e146200010d57806301ffc9a714620001375780630681432b146200015f575b600080fd5b620001246200011e366004620013a0565b620002f8565b6040519081526020015b60405180910390f35b6200014e62000148366004620013e4565b6200038f565b60405190151581526020016200012e565b62000169620003e3565b6040516200012e91906200146c565b6200018f62000189366004620014d2565b620004c6565b6040516200012e9190620014ec565b620001b5620001af36600462001662565b62000562565b005b620001ce620001c83660046200171a565b620005b6565b6040516200012e919062001831565b62000211620001ee36600462001846565b80516020918201206000908152600590915260409020546001600160a01b031690565b6040516001600160a01b0390911681526020016200012e565b620001b5620006f5565b620001b56200024536600462001887565b6200070d565b6003546001600160a01b031662000211565b620001b56200026e366004620018db565b62000952565b6200018f62000285366004620014d2565b62000963565b6200014e6200029c3660046200191b565b6001600160a01b03918216600090815260016020908152604080832093909416825291909152205460ff1690565b620001b5620002db3660046200194a565b62000982565b620001b5620002f2366004620019b7565b620009cf565b60006001600160a01b038316620003695760405162461bcd60e51b815260206004820152602a60248201527f455243313135353a2061646472657373207a65726f206973206e6f742061207660448201526930b634b21037bbb732b960b11b60648201526084015b60405180910390fd5b506000908152602081815260408083206001600160a01b03949094168352929052205490565b60006001600160e01b03198216636cdb3d1360e11b1480620003c157506001600160e01b031982166303a24d0760e21b145b80620003dd57506301ffc9a760e01b6001600160e01b03198316145b92915050565b60606006805480602002602001604051908101604052809291908181526020016000905b82821015620004bd5783829060005260206000200180546200042990620019d5565b80601f01602080910402602001604051908101604052809291908181526020018280546200045790620019d5565b8015620004a85780601f106200047c57610100808354040283529160200191620004a8565b820191906000526020600020905b8154815290600101906020018083116200048a57829003601f168201915b50505050508152602001906001019062000407565b50505050905090565b606060028054620004d790620019d5565b80601f01602080910402602001604051908101604052809291908181526020018280546200050590620019d5565b8015620005565780601f106200052a5761010080835404028352916020019162000556565b820191906000526020600020905b8154815290600101906020018083116200053857829003601f168201915b50505050509050919050565b6001600160a01b0385163314806200058157506200058185336200029c565b620005a05760405162461bcd60e51b8152600401620003609062001a12565b620005af858585858562000a4e565b5050505050565b606081518351146200061d5760405162461bcd60e51b815260206004820152602960248201527f455243313135353a206163636f756e747320616e6420696473206c656e677468604482015268040dad2e6dac2e8c6d60bb1b606482015260840162000360565b6000835167ffffffffffffffff8111156200063c576200063c62001501565b60405190808252806020026020018201604052801562000666578160200160208202803683370190505b50905060005b8451811015620006ed57620006ba8582815181106200068f576200068f62001a61565b6020026020010151858381518110620006ac57620006ac62001a61565b6020026020010151620002f8565b828281518110620006cf57620006cf62001a61565b6020908102919091010152620006e58162001a8d565b90506200066c565b509392505050565b620006ff62000c43565b6200070b600062000c9f565b565b6200071762000c43565b8151602080840191909120600081815260059092526040909120546001600160a01b031615620007a95760405162461bcd60e51b815260206004820152603660248201527f53756252656769737472792077697468207468697320746f70206c6576656c206044820152753237b6b0b4b71030b63932b0b23c9032bc34b9ba399760511b606482015260840162000360565b620007c860018260016040518060200160405280600081525062000cf1565b6006805460018101825560009190915283516200080d917ff652222313e28459528d920b65115c16c04f3efc82aaedc97be59f3f377c0d3f01906020860190620012cf565b50600081815260046020908152604090912084516200082f92860190620012cf565b5060008360405160200162000845919062001aab565b604051602081830303815290604052838560405162000864906200135e565b620008729392919062001aee565b604051809103906000f0801580156200088f573d6000803e3d6000fd5b5060405163f2fde38b60e01b81523360048201529091506001600160a01b0382169063f2fde38b90602401600060405180830381600087803b158015620008d557600080fd5b505af1158015620008ea573d6000803e3d6000fd5b50505060008381526005602090815260409182902080546001600160a01b0319166001600160a01b03861690811790915591519182527f46c9f37af3b7356678eae96b547ae8852ff37a7f43d72675b11d49e1783bec8092500160405180910390a150505050565b6200095f33838362000e0f565b5050565b6000818152600460205260409020805460609190620004d790620019d5565b6001600160a01b038516331480620009a15750620009a185336200029c565b620009c05760405162461bcd60e51b8152600401620003609062001a12565b620005af858585858562000ef2565b620009d962000c43565b6001600160a01b03811662000a405760405162461bcd60e51b815260206004820152602660248201527f4f776e61626c653a206e6577206f776e657220697320746865207a65726f206160448201526564647265737360d01b606482015260840162000360565b62000a4b8162000c9f565b50565b815183511462000ab25760405162461bcd60e51b815260206004820152602860248201527f455243313135353a2069647320616e6420616d6f756e7473206c656e677468206044820152670dad2e6dac2e8c6d60c31b606482015260840162000360565b6001600160a01b03841662000adb5760405162461bcd60e51b8152600401620003609062001b51565b3360005b845181101562000bd157600085828151811062000b005762000b0062001a61565b60200260200101519050600085838151811062000b215762000b2162001a61565b602090810291909101810151600084815280835260408082206001600160a01b038e16835290935291909120549091508181101562000b745760405162461bcd60e51b8152600401620003609062001b96565b6000838152602081815260408083206001600160a01b038e8116855292528083208585039055908b1682528120805484929062000bb390849062001be0565b925050819055505050508062000bc99062001a8d565b905062000adf565b50846001600160a01b0316866001600160a01b0316826001600160a01b03167f4a39dc06d4c0dbc64b70af90fd698a233a518aa5d07e595d983b8c0526c8f7fb878760405162000c2392919062001bfb565b60405180910390a462000c3b8187878787876200102a565b505050505050565b6003546001600160a01b031633146200070b5760405162461bcd60e51b815260206004820181905260248201527f4f776e61626c653a2063616c6c6572206973206e6f7420746865206f776e6572604482015260640162000360565b600380546001600160a01b038381166001600160a01b0319831681179093556040519116919082907f8be0079c531659141344cd1fd0a4f28419497f9722a3daafe3b4186f6b6457e090600090a35050565b6001600160a01b03841662000d535760405162461bcd60e51b815260206004820152602160248201527f455243313135353a206d696e7420746f20746865207a65726f206164647265736044820152607360f81b606482015260840162000360565b33600062000d6185620011aa565b9050600062000d7085620011aa565b90506000868152602081815260408083206001600160a01b038b1684529091528120805487929062000da490849062001be0565b909155505060408051878152602081018790526001600160a01b03808a1692600092918716917fc3d58168c5ae7397731d063d5bbf3d657854427343f4c083240f7aacaa2d0f62910160405180910390a462000e0683600089898989620011f8565b50505050505050565b816001600160a01b0316836001600160a01b0316141562000e855760405162461bcd60e51b815260206004820152602960248201527f455243313135353a2073657474696e6720617070726f76616c20737461747573604482015268103337b91039b2b63360b91b606482015260840162000360565b6001600160a01b03838116600081815260016020908152604080832094871680845294825291829020805460ff191686151590811790915591519182527f17307eab39ab6107e8899845ad3d59bd9653f200f220920489ca2b5937696c31910160405180910390a3505050565b6001600160a01b03841662000f1b5760405162461bcd60e51b8152600401620003609062001b51565b33600062000f2985620011aa565b9050600062000f3885620011aa565b90506000868152602081815260408083206001600160a01b038c1684529091529020548581101562000f7e5760405162461bcd60e51b8152600401620003609062001b96565b6000878152602081815260408083206001600160a01b038d8116855292528083208985039055908a1682528120805488929062000fbd90849062001be0565b909155505060408051888152602081018890526001600160a01b03808b16928c821692918816917fc3d58168c5ae7397731d063d5bbf3d657854427343f4c083240f7aacaa2d0f62910160405180910390a46200101f848a8a8a8a8a620011f8565b505050505050505050565b6001600160a01b0384163b1562000c3b5760405163bc197c8160e01b81526001600160a01b0385169063bc197c819062001071908990899088908890889060040162001c2d565b602060405180830381600087803b1580156200108c57600080fd5b505af1925050508015620010bf575060408051601f3d908101601f19168201909252620010bc9181019062001c91565b60015b6200117757620010ce62001cb1565b806308c379a014156200110f5750620010e662001cce565b80620010f3575062001111565b8060405162461bcd60e51b8152600401620003609190620014ec565b505b60405162461bcd60e51b815260206004820152603460248201527f455243313135353a207472616e7366657220746f206e6f6e20455243313135356044820152732932b1b2b4bb32b91034b6b83632b6b2b73a32b960611b606482015260840162000360565b6001600160e01b0319811663bc197c8160e01b1462000e065760405162461bcd60e51b8152600401620003609062001d5e565b60408051600180825281830190925260609160009190602080830190803683370190505090508281600081518110620011e757620011e762001a61565b602090810291909101015292915050565b6001600160a01b0384163b1562000c3b5760405163f23a6e6160e01b81526001600160a01b0385169063f23a6e61906200123f908990899088908890889060040162001da6565b602060405180830381600087803b1580156200125a57600080fd5b505af19250505080156200128d575060408051601f3d908101601f191682019092526200128a9181019062001c91565b60015b6200129c57620010ce62001cb1565b6001600160e01b0319811663f23a6e6160e01b1462000e065760405162461bcd60e51b8152600401620003609062001d5e565b828054620012dd90620019d5565b90600052602060002090601f0160209004810192826200130157600085556200134c565b82601f106200131c57805160ff19168380011785556200134c565b828001600101855582156200134c579182015b828111156200134c5782518255916020019190600101906200132f565b506200135a9291506200136c565b5090565b6120fa8062001dee83390190565b5b808211156200135a57600081556001016200136d565b80356001600160a01b03811681146200139b57600080fd5b919050565b60008060408385031215620013b457600080fd5b620013bf8362001383565b946020939093013593505050565b6001600160e01b03198116811462000a4b57600080fd5b600060208284031215620013f757600080fd5b81356200140481620013cd565b9392505050565b60005b83811015620014285781810151838201526020016200140e565b8381111562001438576000848401525b50505050565b60008151808452620014588160208601602086016200140b565b601f01601f19169290920160200192915050565b6000602080830181845280855180835260408601915060408160051b870101925083870160005b82811015620014c557603f19888603018452620014b28583516200143e565b9450928501929085019060010162001493565b5092979650505050505050565b600060208284031215620014e557600080fd5b5035919050565b6020815260006200140460208301846200143e565b634e487b7160e01b600052604160045260246000fd5b601f8201601f1916810167ffffffffffffffff8111828210171562001540576200154062001501565b6040525050565b600067ffffffffffffffff82111562001564576200156462001501565b5060051b60200190565b600082601f8301126200158057600080fd5b813560206200158f8262001547565b6040516200159e828262001517565b83815260059390931b8501820192828101915086841115620015bf57600080fd5b8286015b84811015620015dc5780358352918301918301620015c3565b509695505050505050565b600082601f830112620015f957600080fd5b813567ffffffffffffffff81111562001616576200161662001501565b6040516200162f601f8301601f19166020018262001517565b8181528460208386010111156200164557600080fd5b816020850160208301376000918101602001919091529392505050565b600080600080600060a086880312156200167b57600080fd5b620016868662001383565b9450620016966020870162001383565b9350604086013567ffffffffffffffff80821115620016b457600080fd5b620016c289838a016200156e565b94506060880135915080821115620016d957600080fd5b620016e789838a016200156e565b93506080880135915080821115620016fe57600080fd5b506200170d88828901620015e7565b9150509295509295909350565b600080604083850312156200172e57600080fd5b823567ffffffffffffffff808211156200174757600080fd5b818501915085601f8301126200175c57600080fd5b813560206200176b8262001547565b6040516200177a828262001517565b83815260059390931b85018201928281019150898411156200179b57600080fd5b948201945b83861015620017c457620017b48662001383565b82529482019490820190620017a0565b96505086013592505080821115620017db57600080fd5b50620017ea858286016200156e565b9150509250929050565b600081518084526020808501945080840160005b83811015620018265781518752958201959082019060010162001808565b509495945050505050565b602081526000620014046020830184620017f4565b6000602082840312156200185957600080fd5b813567ffffffffffffffff8111156200187157600080fd5b6200187f84828501620015e7565b949350505050565b600080604083850312156200189b57600080fd5b823567ffffffffffffffff811115620018b357600080fd5b620018c185828601620015e7565b925050620018d26020840162001383565b90509250929050565b60008060408385031215620018ef57600080fd5b620018fa8362001383565b9150602083013580151581146200191057600080fd5b809150509250929050565b600080604083850312156200192f57600080fd5b6200193a8362001383565b9150620018d26020840162001383565b600080600080600060a086880312156200196357600080fd5b6200196e8662001383565b94506200197e6020870162001383565b93506040860135925060608601359150608086013567ffffffffffffffff811115620019a957600080fd5b6200170d88828901620015e7565b600060208284031215620019ca57600080fd5b620014048262001383565b600181811c90821680620019ea57607f821691505b6020821081141562001a0c57634e487b7160e01b600052602260045260246000fd5b50919050565b6020808252602f908201527f455243313135353a2063616c6c6572206973206e6f7420746f6b656e206f776e60408201526e195c881b9bdc88185c1c1c9bdd9959608a1b606082015260800190565b634e487b7160e01b600052603260045260246000fd5b634e487b7160e01b600052601160045260246000fd5b600060001982141562001aa45762001aa462001a77565b5060010190565b624d4e5360e81b815261141760f11b60038201526000825162001ad68160058501602087016200140b565b602960f81b6005939091019283015250600601919050565b60808152600a6080820152694d6f6f6e73747275636b60b01b60a082015260c06020820152600062001b2460c08301866200143e565b6001600160a01b0385166040840152828103606084015262001b4781856200143e565b9695505050505050565b60208082526025908201527f455243313135353a207472616e7366657220746f20746865207a65726f206164604082015264647265737360d81b606082015260800190565b6020808252602a908201527f455243313135353a20696e73756666696369656e742062616c616e636520666f60408201526939103a3930b739b332b960b11b606082015260800190565b6000821982111562001bf65762001bf662001a77565b500190565b60408152600062001c106040830185620017f4565b828103602084015262001c248185620017f4565b95945050505050565b6001600160a01b0386811682528516602082015260a06040820181905260009062001c5b90830186620017f4565b828103606084015262001c6f8186620017f4565b9050828103608084015262001c8581856200143e565b98975050505050505050565b60006020828403121562001ca457600080fd5b81516200140481620013cd565b600060033d111562001ccb5760046000803e5060005160e01c5b90565b600060443d101562001cdd5790565b6040516003193d81016004833e81513d67ffffffffffffffff816024840111818411171562001d0e57505050505090565b828501915081518181111562001d275750505050505090565b843d870101602082850101111562001d425750505050505090565b62001d536020828601018762001517565b509095945050505050565b60208082526028908201527f455243313135353a204552433131353552656365697665722072656a656374656040820152676420746f6b656e7360c01b606082015260800190565b6001600160a01b03868116825285166020820152604081018490526060810183905260a06080820181905260009062001de2908301846200143e565b97965050505050505056fe60806040523480156200001157600080fd5b50604051620020fa380380620020fa833981016040819052620000349162000289565b8351849084906200004d90600090602085019062000116565b5080516200006390600190602084019062000116565b505050620000806200007a620000c060201b60201c565b620000c4565b6001600855600a80546001600160a01b0319166001600160a01b0384161790558051620000b590600b90602084019062000116565b505050505062000379565b3390565b600780546001600160a01b038381166001600160a01b0319831681179093556040519116919082907f8be0079c531659141344cd1fd0a4f28419497f9722a3daafe3b4186f6b6457e090600090a35050565b82805462000124906200033c565b90600052602060002090601f01602090048101928262000148576000855562000193565b82601f106200016357805160ff191683800117855562000193565b8280016001018555821562000193579182015b828111156200019357825182559160200191906001019062000176565b50620001a1929150620001a5565b5090565b5b80821115620001a15760008155600101620001a6565b634e487b7160e01b600052604160045260246000fd5b600082601f830112620001e457600080fd5b81516001600160401b0380821115620002015762000201620001bc565b604051601f8301601f19908116603f011681019082821181831017156200022c576200022c620001bc565b816040528381526020925086838588010111156200024957600080fd5b600091505b838210156200026d57858201830151818301840152908201906200024e565b838211156200027f5760008385830101525b9695505050505050565b60008060008060808587031215620002a057600080fd5b84516001600160401b0380821115620002b857600080fd5b620002c688838901620001d2565b95506020870151915080821115620002dd57600080fd5b620002eb88838901620001d2565b604088015190955091506001600160a01b03821682146200030b57600080fd5b6060870151919350808211156200032157600080fd5b506200033087828801620001d2565b91505092959194509250565b600181811c908216806200035157607f821691505b602082108114156200037357634e487b7160e01b600052602260045260246000fd5b50919050565b611d7180620003896000396000f3fe60806040526004361061014b5760003560e01c806370a08231116100b6578063b88d4fde1161006f578063b88d4fde146103b5578063c60c835e146103d5578063c87b56dd146103f5578063e1a3e55c14610415578063e985e9c514610428578063f2fde38b1461047157600080fd5b806370a08231146102ff578063715018a61461032d57806389a464f4146103425780638da5cb5b1461036257806395d89b4114610380578063a22cb4651461039557600080fd5b806338b4e3381161010857806338b4e3381461024157806342842e0e1461025f5780634f558e791461027f578063531cfc571461029f57806356d90462146102bf5780636352211e146102df57600080fd5b806301ffc9a71461015057806306fdde0314610185578063081812fc146101a7578063095ea7b3146101df578063155dd5ee1461020157806323b872dd14610221575b600080fd5b34801561015c57600080fd5b5061017061016b366004611761565b610491565b60405190151581526020015b60405180910390f35b34801561019157600080fd5b5061019a6104e3565b60405161017c91906117dd565b3480156101b357600080fd5b506101c76101c23660046117f0565b610575565b6040516001600160a01b03909116815260200161017c565b3480156101eb57600080fd5b506101ff6101fa366004611825565b61059c565b005b34801561020d57600080fd5b506101ff61021c3660046117f0565b6106b7565b34801561022d57600080fd5b506101ff61023c36600461184f565b6106f0565b34801561024d57600080fd5b50600a546001600160a01b03166101c7565b34801561026b57600080fd5b506101ff61027a36600461184f565b610768565b34801561028b57600080fd5b5061017061029a3660046117f0565b610783565b3480156102ab57600080fd5b506101ff6102ba36600461188b565b6107a2565b3480156102cb57600080fd5b506101ff6102da3660046117f0565b6107cc565b3480156102eb57600080fd5b506101c76102fa3660046117f0565b610842565b34801561030b57600080fd5b5061031f61031a36600461188b565b6108a2565b60405190815260200161017c565b34801561033957600080fd5b506101ff610928565b34801561034e57600080fd5b506101ff61035d3660046118a6565b61093c565b34801561036e57600080fd5b506007546001600160a01b03166101c7565b34801561038c57600080fd5b5061019a6109f0565b3480156103a157600080fd5b506101ff6103b03660046118d2565b6109ff565b3480156103c157600080fd5b506101ff6103d036600461199a565b610a0a565b3480156103e157600080fd5b506101c76103f03660046117f0565b610a42565b34801561040157600080fd5b5061019a6104103660046117f0565b610a77565b6101ff610423366004611a16565b610abf565b34801561043457600080fd5b50610170610443366004611a6f565b6001600160a01b03918216600090815260056020908152604080832093909416825291909152205460ff1690565b34801561047d57600080fd5b506101ff61048c36600461188b565b610d99565b60006001600160e01b031982166380ac58cd60e01b14806104c257506001600160e01b03198216635b5e139f60e01b145b806104dd57506301ffc9a760e01b6001600160e01b03198316145b92915050565b6060600080546104f290611a99565b80601f016020809104026020016040519081016040528092919081815260200182805461051e90611a99565b801561056b5780601f106105405761010080835404028352916020019161056b565b820191906000526020600020905b81548152906001019060200180831161054e57829003601f168201915b5050505050905090565b600061058082610e0f565b506000908152600460205260409020546001600160a01b031690565b60006105a782610842565b9050806001600160a01b0316836001600160a01b0316141561061a5760405162461bcd60e51b815260206004820152602160248201527f4552433732313a20617070726f76616c20746f2063757272656e74206f776e656044820152603960f91b60648201526084015b60405180910390fd5b336001600160a01b038216148061063657506106368133610443565b6106a85760405162461bcd60e51b815260206004820152603e60248201527f4552433732313a20617070726f76652063616c6c6572206973206e6f7420746f60448201527f6b656e206f776e6572206e6f7220617070726f76656420666f7220616c6c00006064820152608401610611565b6106b28383610e6e565b505050565b6106bf610edc565b604051339082156108fc029083906000818181858888f193505050501580156106ec573d6000803e3d6000fd5b5050565b6106fa3382610f36565b6107165760405162461bcd60e51b815260040161061190611ad4565b610721838383610fb5565b604080516001600160a01b0384168152602081018390527fa343922d82078a58feffab3e45a859fd30e8c1c56fef4b09b7572d515afa3287910160405180910390a1505050565b6106b283838360405180602001604052806000815250610a0a565b6000818152600260205260408120546001600160a01b031615156104dd565b6107aa610edc565b600a80546001600160a01b0319166001600160a01b0392909216919091179055565b336107d682610842565b6001600160a01b0316146108365760405162461bcd60e51b815260206004820152602160248201527f596f752063616e206f6e6c79206275726e20796f7572206f776e20746f6b656e6044820152607360f81b6064820152608401610611565b61083f81611151565b50565b6000818152600260205260408120546001600160a01b0316806104dd5760405162461bcd60e51b8152602060048201526018602482015277115490cdcc8c4e881a5b9d985b1a59081d1bdad95b88125160421b6044820152606401610611565b60006001600160a01b03821661090c5760405162461bcd60e51b815260206004820152602960248201527f4552433732313a2061646472657373207a65726f206973206e6f7420612076616044820152683634b21037bbb732b960b91b6064820152608401610611565b506001600160a01b031660009081526003602052604090205490565b610930610edc565b61093a6000611191565b565b6109463383610f36565b6109a55760405162461bcd60e51b815260206004820152602a60248201527f596f752063616e2774206368616e6765207265736f6c76657220666f7220746860448201526934b9903237b6b0b4b71760b11b6064820152608401610611565b80600960006109b385610a77565b80519060200120815260200190815260200160002060006101000a8154816001600160a01b0302191690836001600160a01b031602179055505050565b6060600180546104f290611a99565b6106ec3383836111e3565b610a143383610f36565b610a305760405162461bcd60e51b815260040161061190611ad4565b610a3c848484846112b2565b50505050565b600060096000610a5184610a77565b80516020918201208252810191909152604001600020546001600160a01b031692915050565b6060610a8282610e0f565b6000828152600c60205260409020610a986112e5565b604051602001610aa9929190611b3e565b6040516020818303038152906040529050919050565b60026008541415610b125760405162461bcd60e51b815260206004820152601f60248201527f5265656e7472616e637947756172643a207265656e7472616e742063616c6c006044820152606401610611565b6002600855600082610b226112e5565b604051602001610b33929190611bf5565b60408051601f198184030181529181528151602092830120600081815260029093529120549091506001600160a01b031615610bbc5760405162461bcd60e51b815260206004820152602260248201527f5468697320646f6d61696e20697320616c726561647920726567697374657265604482015261321760f11b6064820152608401610611565b6000835111610c285760405162461bcd60e51b815260206004820152603260248201527f596f757220646f6d61696e206e616d652073686f756c642068617665206174206044820152713632b0b9ba10189031b430b930b1ba32b91760711b6064820152608401610611565b600a5460405163524f388960e01b81526000916001600160a01b03169063524f388990610c599087906004016117dd565b60206040518083038186803b158015610c7157600080fd5b505afa158015610c85573d6000803e3d6000fd5b505050506040513d601f19601f82011682018060405250810190610ca99190611c31565b905080341015610d055760405162461bcd60e51b815260206004820152602160248201527f596f7520646964206e6f742070726f7669646520656e6f756768206d617469636044820152601760f91b6064820152608401610611565b610d0f83836112f4565b610d198285611436565b604080516001600160a01b0385168152602081018490527fa343922d82078a58feffab3e45a859fd30e8c1c56fef4b09b7572d515afa3287910160405180910390a16040513390348084146108fc029190849003906000818181858888f19350505050158015610d8d573d6000803e3d6000fd5b50506001600855505050565b610da1610edc565b6001600160a01b038116610e065760405162461bcd60e51b815260206004820152602660248201527f4f776e61626c653a206e6577206f776e657220697320746865207a65726f206160448201526564647265737360d01b6064820152608401610611565b61083f81611191565b6000818152600260205260409020546001600160a01b031661083f5760405162461bcd60e51b8152602060048201526018602482015277115490cdcc8c4e881a5b9d985b1a59081d1bdad95b88125160421b6044820152606401610611565b600081815260046020526040902080546001600160a01b0319166001600160a01b0384169081179091558190610ea382610842565b6001600160a01b03167f8c5be1e5ebec7d5bd14f71427d1e84f3dd0314c0f7b2291e5b200ac8c7c3b92560405160405180910390a45050565b6007546001600160a01b0316331461093a5760405162461bcd60e51b815260206004820181905260248201527f4f776e61626c653a2063616c6c6572206973206e6f7420746865206f776e65726044820152606401610611565b600080610f4283610842565b9050806001600160a01b0316846001600160a01b03161480610f8957506001600160a01b0380821660009081526005602090815260408083209388168352929052205460ff165b80610fad5750836001600160a01b0316610fa284610575565b6001600160a01b0316145b949350505050565b826001600160a01b0316610fc882610842565b6001600160a01b03161461102c5760405162461bcd60e51b815260206004820152602560248201527f4552433732313a207472616e736665722066726f6d20696e636f72726563742060448201526437bbb732b960d91b6064820152608401610611565b6001600160a01b03821661108e5760405162461bcd60e51b8152602060048201526024808201527f4552433732313a207472616e7366657220746f20746865207a65726f206164646044820152637265737360e01b6064820152608401610611565b611099600082610e6e565b6001600160a01b03831660009081526003602052604081208054600192906110c2908490611c60565b90915550506001600160a01b03821660009081526003602052604081208054600192906110f0908490611c77565b909155505060008181526002602052604080822080546001600160a01b0319166001600160a01b0386811691821790925591518493918716917fddf252ad1be2c89b69c2b068fc378daa952ba7f163c4a11628f55a4df523b3ef91a4505050565b61115a816114d0565b6000818152600660205260409020805461117390611a99565b15905061083f57600081815260066020526040812061083f91611678565b600780546001600160a01b038381166001600160a01b0319831681179093556040519116919082907f8be0079c531659141344cd1fd0a4f28419497f9722a3daafe3b4186f6b6457e090600090a35050565b816001600160a01b0316836001600160a01b031614156112455760405162461bcd60e51b815260206004820152601960248201527f4552433732313a20617070726f766520746f2063616c6c6572000000000000006044820152606401610611565b6001600160a01b03838116600081815260056020908152604080832094871680845294825291829020805460ff191686151590811790915591519182527f17307eab39ab6107e8899845ad3d59bd9653f200f220920489ca2b5937696c31910160405180910390a3505050565b6112bd848484610fb5565b6112c98484848461156b565b610a3c5760405162461bcd60e51b815260040161061190611c8f565b6060600b80546104f290611a99565b6001600160a01b03821661134a5760405162461bcd60e51b815260206004820181905260248201527f4552433732313a206d696e7420746f20746865207a65726f20616464726573736044820152606401610611565b6000818152600260205260409020546001600160a01b0316156113af5760405162461bcd60e51b815260206004820152601c60248201527f4552433732313a20746f6b656e20616c7265616479206d696e746564000000006044820152606401610611565b6001600160a01b03821660009081526003602052604081208054600192906113d8908490611c77565b909155505060008181526002602052604080822080546001600160a01b0319166001600160a01b03861690811790915590518392907fddf252ad1be2c89b69c2b068fc378daa952ba7f163c4a11628f55a4df523b3ef908290a45050565b6000828152600260205260409020546001600160a01b03166114b15760405162461bcd60e51b815260206004820152602e60248201527f45524337323155524953746f726167653a2055524920736574206f66206e6f6e60448201526d32bc34b9ba32b73a103a37b5b2b760911b6064820152608401610611565b6000828152600c6020908152604090912082516106b2928401906116b2565b60006114db82610842565b90506114e8600083610e6e565b6001600160a01b0381166000908152600360205260408120805460019290611511908490611c60565b909155505060008281526002602052604080822080546001600160a01b0319169055518391906001600160a01b038416907fddf252ad1be2c89b69c2b068fc378daa952ba7f163c4a11628f55a4df523b3ef908390a45050565b60006001600160a01b0384163b1561166d57604051630a85bd0160e11b81526001600160a01b0385169063150b7a02906115af903390899088908890600401611ce1565b602060405180830381600087803b1580156115c957600080fd5b505af19250505080156115f9575060408051601f3d908101601f191682019092526115f691810190611d1e565b60015b611653573d808015611627576040519150601f19603f3d011682016040523d82523d6000602084013e61162c565b606091505b50805161164b5760405162461bcd60e51b815260040161061190611c8f565b805181602001fd5b6001600160e01b031916630a85bd0160e11b149050610fad565b506001949350505050565b50805461168490611a99565b6000825580601f10611694575050565b601f01602090049060005260206000209081019061083f9190611736565b8280546116be90611a99565b90600052602060002090601f0160209004810192826116e05760008555611726565b82601f106116f957805160ff1916838001178555611726565b82800160010185558215611726579182015b8281111561172657825182559160200191906001019061170b565b50611732929150611736565b5090565b5b808211156117325760008155600101611737565b6001600160e01b03198116811461083f57600080fd5b60006020828403121561177357600080fd5b813561177e8161174b565b9392505050565b60005b838110156117a0578181015183820152602001611788565b83811115610a3c5750506000910152565b600081518084526117c9816020860160208601611785565b601f01601f19169290920160200192915050565b60208152600061177e60208301846117b1565b60006020828403121561180257600080fd5b5035919050565b80356001600160a01b038116811461182057600080fd5b919050565b6000806040838503121561183857600080fd5b61184183611809565b946020939093013593505050565b60008060006060848603121561186457600080fd5b61186d84611809565b925061187b60208501611809565b9150604084013590509250925092565b60006020828403121561189d57600080fd5b61177e82611809565b600080604083850312156118b957600080fd5b823591506118c960208401611809565b90509250929050565b600080604083850312156118e557600080fd5b6118ee83611809565b91506020830135801515811461190357600080fd5b809150509250929050565b634e487b7160e01b600052604160045260246000fd5b600067ffffffffffffffff8084111561193f5761193f61190e565b604051601f8501601f19908116603f011681019082821181831017156119675761196761190e565b8160405280935085815286868601111561198057600080fd5b858560208301376000602087830101525050509392505050565b600080600080608085870312156119b057600080fd5b6119b985611809565b93506119c760208601611809565b925060408501359150606085013567ffffffffffffffff8111156119ea57600080fd5b8501601f810187136119fb57600080fd5b611a0a87823560208401611924565b91505092959194509250565b60008060408385031215611a2957600080fd5b823567ffffffffffffffff811115611a4057600080fd5b8301601f81018513611a5157600080fd5b611a6085823560208401611924565b9250506118c960208401611809565b60008060408385031215611a8257600080fd5b611a8b83611809565b91506118c960208401611809565b600181811c90821680611aad57607f821691505b60208210811415611ace57634e487b7160e01b600052602260045260246000fd5b50919050565b6020808252602e908201527f4552433732313a2063616c6c6572206973206e6f7420746f6b656e206f776e6560408201526d1c881b9bdc88185c1c1c9bdd995960921b606082015260800190565b60008151611b34818560208601611785565b9290920192915050565b600080845481600182811c915080831680611b5a57607f831692505b6020808410821415611b7a57634e487b7160e01b86526022600452602486fd5b818015611b8e5760018114611b9f57611bcc565b60ff19861689528489019650611bcc565b60008b81526020902060005b86811015611bc45781548b820152908501908301611bab565b505084890196505b505050505050611bec611be682601760f91b815260010190565b85611b22565b95945050505050565b60008351611c07818460208801611785565b601760f91b9083019081528351611c25816001840160208801611785565b01600101949350505050565b600060208284031215611c4357600080fd5b5051919050565b634e487b7160e01b600052601160045260246000fd5b600082821015611c7257611c72611c4a565b500390565b60008219821115611c8a57611c8a611c4a565b500190565b60208082526032908201527f4552433732313a207472616e7366657220746f206e6f6e20455243373231526560408201527131b2b4bb32b91034b6b83632b6b2b73a32b960711b606082015260800190565b6001600160a01b0385811682528416602082015260408101839052608060608201819052600090611d14908301846117b1565b9695505050505050565b600060208284031215611d3057600080fd5b815161177e8161174b56fea2646970667358221220c7d347f4a46cca930f6dd49119bfeb87ab29b2b57552bbfcc2232d529d12a63864736f6c63430008090033a2646970667358221220a9c7f57745867c1a6a70e1a8ccd37dc835451584590eae2f7fb0fb18e5698ece64736f6c63430008090033",
  "linkReferences": {},
  "deployedLinkReferences": {}
}