{
    "_format": "hh-sol-artifact-1",
    "contractName": "Resolver",
    "sourceName": "contracts/Resolver.sol",
    "abi": [
        {
            "anonymous": false,
            "inputs": [
                {
                    "indexed": true,
                    "internalType": "address",
                    "name": "previousOwner",
                    "type": "address"
                },
                {
                    "indexed": true,
                    "internalType": "address",
                    "name": "newOwner",
                    "type": "address"
                }
            ],
            "name": "OwnershipTransferred",
            "type": "event"
        },
        {
            "anonymous": false,
            "inputs": [
                {
                    "indexed": false,
                    "internalType": "uint256",
                    "name": "_type",
                    "type": "uint256"
                },
                {
                    "indexed": false,
                    "internalType": "string",
                    "name": "key",
                    "type": "string"
                },
                {
                    "indexed": false,
                    "internalType": "bytes",
                    "name": "value",
                    "type": "bytes"
                }
            ],
            "name": "RecordSet",
            "type": "event"
        },
        {
            "inputs": [],
            "name": "INTERFACE",
            "outputs": [
                {
                    "internalType": "string",
                    "name": "",
                    "type": "string"
                }
            ],
            "stateMutability": "view",
            "type": "function"
        },
        {
            "inputs": [
                {
                    "internalType": "uint256",
                    "name": "_type",
                    "type": "uint256"
                },
                {
                    "internalType": "string",
                    "name": "key",
                    "type": "string"
                }
            ],
            "name": "getRecord",
            "outputs": [
                {
                    "internalType": "bytes",
                    "name": "",
                    "type": "bytes"
                }
            ],
            "stateMutability": "view",
            "type": "function"
        },
        {
            "inputs": [],
            "name": "owner",
            "outputs": [
                {
                    "internalType": "address",
                    "name": "",
                    "type": "address"
                }
            ],
            "stateMutability": "view",
            "type": "function"
        },
        {
            "inputs": [],
            "name": "renounceOwnership",
            "outputs": [],
            "stateMutability": "nonpayable",
            "type": "function"
        },
        {
            "inputs": [
                {
                    "internalType": "uint256",
                    "name": "_type",
                    "type": "uint256"
                },
                {
                    "internalType": "string",
                    "name": "key",
                    "type": "string"
                },
                {
                    "internalType": "bytes",
                    "name": "value",
                    "type": "bytes"
                }
            ],
            "name": "setRecord",
            "outputs": [],
            "stateMutability": "nonpayable",
            "type": "function"
        },
        {
            "inputs": [
                {
                    "internalType": "address",
                    "name": "newOwner",
                    "type": "address"
                }
            ],
            "name": "transferOwnership",
            "outputs": [],
            "stateMutability": "nonpayable",
            "type": "function"
        }
    ],
    "bytecode": "0x608060405234801561001057600080fd5b5061001a3361001f565b61006f565b600080546001600160a01b038381166001600160a01b0319831681178455604051919092169283917f8be0079c531659141344cd1fd0a4f28419497f9722a3daafe3b4186f6b6457e09190a35050565b61073b8061007e6000396000f3fe608060405234801561001057600080fd5b50600436106100625760003560e01c80632d8ca8b11461006757806332e30e841461007c57806361ff33a1146100ce578063715018a6146100e15780638da5cb5b146100e9578063f2fde38b14610104575b600080fd5b61007a610075366004610505565b610117565b005b6100b86040518060400160405280601a81526020017f4d4f4e53545255434b5f444f4d41494e535f5245534f4c56455200000000000081525081565b6040516100c591906105e2565b60405180910390f35b6100b86100dc3660046105f5565b6101af565b61007a61027d565b6000546040516001600160a01b0390911681526020016100c5565b61007a61011236600461063c565b610291565b61011f61030f565b80600160008585604051602001610137929190610665565b604051602081830303815290604052805190602001208152602001908152602001600020908051906020019061016e9291906103b9565b507f9551980f56ab4a38eeda798fa201134d95d98db4d3ad60d8ce7b9a29f3681cb78383836040516101a293929190610695565b60405180910390a1505050565b60606001600084846040516020016101c8929190610665565b60405160208183030381529060405280519060200120815260200190815260200160002080546101f7906106ca565b80601f0160208091040260200160405190810160405280929190818152602001828054610223906106ca565b80156102705780601f1061024557610100808354040283529160200191610270565b820191906000526020600020905b81548152906001019060200180831161025357829003601f168201915b5050505050905092915050565b61028561030f565b61028f6000610369565b565b61029961030f565b6001600160a01b0381166103035760405162461bcd60e51b815260206004820152602660248201527f4f776e61626c653a206e6577206f776e657220697320746865207a65726f206160448201526564647265737360d01b60648201526084015b60405180910390fd5b61030c81610369565b50565b6000546001600160a01b0316331461028f5760405162461bcd60e51b815260206004820181905260248201527f4f776e61626c653a2063616c6c6572206973206e6f7420746865206f776e657260448201526064016102fa565b600080546001600160a01b038381166001600160a01b0319831681178455604051919092169283917f8be0079c531659141344cd1fd0a4f28419497f9722a3daafe3b4186f6b6457e09190a35050565b8280546103c5906106ca565b90600052602060002090601f0160209004810192826103e7576000855561042d565b82601f1061040057805160ff191683800117855561042d565b8280016001018555821561042d579182015b8281111561042d578251825591602001919060010190610412565b5061043992915061043d565b5090565b5b80821115610439576000815560010161043e565b634e487b7160e01b600052604160045260246000fd5b600067ffffffffffffffff8084111561048357610483610452565b604051601f8501601f19908116603f011681019082821181831017156104ab576104ab610452565b816040528093508581528686860111156104c457600080fd5b858560208301376000602087830101525050509392505050565b600082601f8301126104ef57600080fd5b6104fe83833560208501610468565b9392505050565b60008060006060848603121561051a57600080fd5b83359250602084013567ffffffffffffffff8082111561053957600080fd5b610545878388016104de565b9350604086013591508082111561055b57600080fd5b508401601f8101861361056d57600080fd5b61057c86823560208401610468565b9150509250925092565b60005b838110156105a1578181015183820152602001610589565b838111156105b0576000848401525b50505050565b600081518084526105ce816020860160208601610586565b601f01601f19169290920160200192915050565b6020815260006104fe60208301846105b6565b6000806040838503121561060857600080fd5b82359150602083013567ffffffffffffffff81111561062657600080fd5b610632858286016104de565b9150509250929050565b60006020828403121561064e57600080fd5b81356001600160a01b03811681146104fe57600080fd5b828152602b60f81b602082015260008251610687816021850160208701610586565b919091016021019392505050565b8381526060602082015260006106ae60608301856105b6565b82810360408401526106c081856105b6565b9695505050505050565b600181811c908216806106de57607f821691505b602082108114156106ff57634e487b7160e01b600052602260045260246000fd5b5091905056fea2646970667358221220fbe2765ad3c2f7c24bd62edf40ab5b7ae0c3cfcf415bd086f8a906daec2b41fd64736f6c63430008090033",
    "linkReferences": {},
    "deployedLinkReferences": {}
}