{
  "_format": "hh-sol-artifact-1",
  "contractName": "SubRegistry",
  "sourceName": "contracts/SubRegistry.sol",
  "abi": [
    {
      "inputs": [
        {
          "internalType": "string",
          "name": "name",
          "type": "string"
        },
        {
          "internalType": "string",
          "name": "symbol",
          "type": "string"
        },
        {
          "internalType": "address",
          "name": "_pricing",
          "type": "address"
        },
        {
          "internalType": "string",
          "name": "_topLevelDomain",
          "type": "string"
        }
      ],
      "stateMutability": "nonpayable",
      "type": "constructor"
    },
    {
      "anonymous": false,
      "inputs": [
        {
          "indexed": true,
          "internalType": "address",
          "name": "owner",
          "type": "address"
        },
        {
          "indexed": true,
          "internalType": "address",
          "name": "approved",
          "type": "address"
        },
        {
          "indexed": true,
          "internalType": "uint256",
          "name": "tokenId",
          "type": "uint256"
        }
      ],
      "name": "Approval",
      "type": "event"
    },
    {
      "anonymous": false,
      "inputs": [
        {
          "indexed": true,
          "internalType": "address",
          "name": "owner",
          "type": "address"
        },
        {
          "indexed": true,
          "internalType": "address",
          "name": "operator",
          "type": "address"
        },
        {
          "indexed": false,
          "internalType": "bool",
          "name": "approved",
          "type": "bool"
        }
      ],
      "name": "ApprovalForAll",
      "type": "event"
    },
    {
      "anonymous": false,
      "inputs": [
        {
          "indexed": true,
          "internalType": "address",
          "name": "previousOwner",
          "type": "address"
        },
        {
          "indexed": true,
          "internalType": "address",
          "name": "newOwner",
          "type": "address"
        }
      ],
      "name": "OwnershipTransferred",
      "type": "event"
    },
    {
      "anonymous": false,
      "inputs": [
        {
          "indexed": true,
          "internalType": "address",
          "name": "from",
          "type": "address"
        },
        {
          "indexed": true,
          "internalType": "address",
          "name": "to",
          "type": "address"
        },
        {
          "indexed": true,
          "internalType": "uint256",
          "name": "tokenId",
          "type": "uint256"
        }
      ],
      "name": "Transfer",
      "type": "event"
    },
    {
      "anonymous": false,
      "inputs": [
        {
          "indexed": false,
          "internalType": "address",
          "name": "from",
          "type": "address"
        },
        {
          "indexed": false,
          "internalType": "address",
          "name": "to",
          "type": "address"
        },
        {
          "indexed": false,
          "internalType": "string",
          "name": "tokenURI",
          "type": "string"
        }
      ],
      "name": "newTokenOwner",
      "type": "event"
    },
    {
      "inputs": [
        {
          "internalType": "address",
          "name": "to",
          "type": "address"
        },
        {
          "internalType": "uint256",
          "name": "tokenId",
          "type": "uint256"
        }
      ],
      "name": "approve",
      "outputs": [],
      "stateMutability": "nonpayable",
      "type": "function"
    },
    {
      "inputs": [
        {
          "internalType": "address",
          "name": "owner",
          "type": "address"
        }
      ],
      "name": "balanceOf",
      "outputs": [
        {
          "internalType": "uint256",
          "name": "",
          "type": "uint256"
        }
      ],
      "stateMutability": "view",
      "type": "function"
    },
    {
      "inputs": [
        {
          "internalType": "uint256",
          "name": "tokenId",
          "type": "uint256"
        }
      ],
      "name": "burnDomain",
      "outputs": [],
      "stateMutability": "nonpayable",
      "type": "function"
    },
    {
      "inputs": [
        {
          "internalType": "string",
          "name": "name",
          "type": "string"
        },
        {
          "internalType": "address",
          "name": "owner",
          "type": "address"
        }
      ],
      "name": "buy",
      "outputs": [],
      "stateMutability": "payable",
      "type": "function"
    },
    {
      "inputs": [
        {
          "internalType": "address",
          "name": "_pricing",
          "type": "address"
        }
      ],
      "name": "changePricing",
      "outputs": [],
      "stateMutability": "nonpayable",
      "type": "function"
    },
    {
      "inputs": [
        {
          "internalType": "uint256",
          "name": "tokenId",
          "type": "uint256"
        },
        {
          "internalType": "address",
          "name": "resolver",
          "type": "address"
        }
      ],
      "name": "changeResolver",
      "outputs": [],
      "stateMutability": "nonpayable",
      "type": "function"
    },
    {
      "inputs": [
        {
          "internalType": "uint256",
          "name": "tokenId",
          "type": "uint256"
        }
      ],
      "name": "exists",
      "outputs": [
        {
          "internalType": "bool",
          "name": "",
          "type": "bool"
        }
      ],
      "stateMutability": "view",
      "type": "function"
    },
    {
      "inputs": [
        {
          "internalType": "uint256",
          "name": "tokenId",
          "type": "uint256"
        }
      ],
      "name": "getApproved",
      "outputs": [
        {
          "internalType": "address",
          "name": "",
          "type": "address"
        }
      ],
      "stateMutability": "view",
      "type": "function"
    },
    {
      "inputs": [],
      "name": "getPricing",
      "outputs": [
        {
          "internalType": "address",
          "name": "",
          "type": "address"
        }
      ],
      "stateMutability": "view",
      "type": "function"
    },
    {
      "inputs": [
        {
          "internalType": "uint256",
          "name": "tokenId",
          "type": "uint256"
        }
      ],
      "name": "getResolver",
      "outputs": [
        {
          "internalType": "address",
          "name": "",
          "type": "address"
        }
      ],
      "stateMutability": "view",
      "type": "function"
    },
    {
      "inputs": [
        {
          "internalType": "address",
          "name": "owner",
          "type": "address"
        },
        {
          "internalType": "address",
          "name": "operator",
          "type": "address"
        }
      ],
      "name": "isApprovedForAll",
      "outputs": [
        {
          "internalType": "bool",
          "name": "",
          "type": "bool"
        }
      ],
      "stateMutability": "view",
      "type": "function"
    },
    {
      "inputs": [],
      "name": "name",
      "outputs": [
        {
          "internalType": "string",
          "name": "",
          "type": "string"
        }
      ],
      "stateMutability": "view",
      "type": "function"
    },
    {
      "inputs": [],
      "name": "owner",
      "outputs": [
        {
          "internalType": "address",
          "name": "",
          "type": "address"
        }
      ],
      "stateMutability": "view",
      "type": "function"
    },
    {
      "inputs": [
        {
          "internalType": "uint256",
          "name": "tokenId",
          "type": "uint256"
        }
      ],
      "name": "ownerOf",
      "outputs": [
        {
          "internalType": "address",
          "name": "",
          "type": "address"
        }
      ],
      "stateMutability": "view",
      "type": "function"
    },
    {
      "inputs": [],
      "name": "renounceOwnership",
      "outputs": [],
      "stateMutability": "nonpayable",
      "type": "function"
    },
    {
      "inputs": [
        {
          "internalType": "address",
          "name": "from",
          "type": "address"
        },
        {
          "internalType": "address",
          "name": "to",
          "type": "address"
        },
        {
          "internalType": "uint256",
          "name": "tokenId",
          "type": "uint256"
        }
      ],
      "name": "safeTransferFrom",
      "outputs": [],
      "stateMutability": "nonpayable",
      "type": "function"
    },
    {
      "inputs": [
        {
          "internalType": "address",
          "name": "from",
          "type": "address"
        },
        {
          "internalType": "address",
          "name": "to",
          "type": "address"
        },
        {
          "internalType": "uint256",
          "name": "tokenId",
          "type": "uint256"
        },
        {
          "internalType": "bytes",
          "name": "data",
          "type": "bytes"
        }
      ],
      "name": "safeTransferFrom",
      "outputs": [],
      "stateMutability": "nonpayable",
      "type": "function"
    },
    {
      "inputs": [
        {
          "internalType": "address",
          "name": "operator",
          "type": "address"
        },
        {
          "internalType": "bool",
          "name": "approved",
          "type": "bool"
        }
      ],
      "name": "setApprovalForAll",
      "outputs": [],
      "stateMutability": "nonpayable",
      "type": "function"
    },
    {
      "inputs": [
        {
          "internalType": "bytes4",
          "name": "interfaceId",
          "type": "bytes4"
        }
      ],
      "name": "supportsInterface",
      "outputs": [
        {
          "internalType": "bool",
          "name": "",
          "type": "bool"
        }
      ],
      "stateMutability": "view",
      "type": "function"
    },
    {
      "inputs": [],
      "name": "symbol",
      "outputs": [
        {
          "internalType": "string",
          "name": "",
          "type": "string"
        }
      ],
      "stateMutability": "view",
      "type": "function"
    },
    {
      "inputs": [
        {
          "internalType": "uint256",
          "name": "tokenId",
          "type": "uint256"
        }
      ],
      "name": "tokenURI",
      "outputs": [
        {
          "internalType": "string",
          "name": "",
          "type": "string"
        }
      ],
      "stateMutability": "view",
      "type": "function"
    },
    {
      "inputs": [
        {
          "internalType": "address",
          "name": "from",
          "type": "address"
        },
        {
          "internalType": "address",
          "name": "to",
          "type": "address"
        },
        {
          "internalType": "uint256",
          "name": "tokenId",
          "type": "uint256"
        }
      ],
      "name": "transferFrom",
      "outputs": [],
      "stateMutability": "nonpayable",
      "type": "function"
    },
    {
      "inputs": [
        {
          "internalType": "address",
          "name": "newOwner",
          "type": "address"
        }
      ],
      "name": "transferOwnership",
      "outputs": [],
      "stateMutability": "nonpayable",
      "type": "function"
    },
    {
      "inputs": [
        {
          "internalType": "uint256",
          "name": "amount",
          "type": "uint256"
        }
      ],
      "name": "withdrawFunds",
      "outputs": [],
      "stateMutability": "nonpayable",
      "type": "function"
    }
  ],
  "bytecode": "0x60806040523480156200001157600080fd5b506040516200216d3803806200216d833981016040819052620000349162000289565b8351849084906200004d90600090602085019062000116565b5080516200006390600190602084019062000116565b505050620000806200007a620000c060201b60201c565b620000c4565b6001600855600a80546001600160a01b0319166001600160a01b0384161790558051620000b590600b90602084019062000116565b505050505062000379565b3390565b600780546001600160a01b038381166001600160a01b0319831681179093556040519116919082907f8be0079c531659141344cd1fd0a4f28419497f9722a3daafe3b4186f6b6457e090600090a35050565b82805462000124906200033c565b90600052602060002090601f01602090048101928262000148576000855562000193565b82601f106200016357805160ff191683800117855562000193565b8280016001018555821562000193579182015b828111156200019357825182559160200191906001019062000176565b50620001a1929150620001a5565b5090565b5b80821115620001a15760008155600101620001a6565b634e487b7160e01b600052604160045260246000fd5b600082601f830112620001e457600080fd5b81516001600160401b0380821115620002015762000201620001bc565b604051601f8301601f19908116603f011681019082821181831017156200022c576200022c620001bc565b816040528381526020925086838588010111156200024957600080fd5b600091505b838210156200026d57858201830151818301840152908201906200024e565b838211156200027f5760008385830101525b9695505050505050565b60008060008060808587031215620002a057600080fd5b84516001600160401b0380821115620002b857600080fd5b620002c688838901620001d2565b95506020870151915080821115620002dd57600080fd5b620002eb88838901620001d2565b604088015190955091506001600160a01b03821682146200030b57600080fd5b6060870151919350808211156200032157600080fd5b506200033087828801620001d2565b91505092959194509250565b600181811c908216806200035157607f821691505b602082108114156200037357634e487b7160e01b600052602260045260246000fd5b50919050565b611de480620003896000396000f3fe60806040526004361061014b5760003560e01c806370a08231116100b6578063b88d4fde1161006f578063b88d4fde146103b5578063c60c835e146103d5578063c87b56dd146103f5578063e1a3e55c14610415578063e985e9c514610428578063f2fde38b1461047157600080fd5b806370a08231146102ff578063715018a61461032d57806389a464f4146103425780638da5cb5b1461036257806395d89b4114610380578063a22cb4651461039557600080fd5b806338b4e3381161010857806338b4e3381461024157806342842e0e1461025f5780634f558e791461027f578063531cfc571461029f57806356d90462146102bf5780636352211e146102df57600080fd5b806301ffc9a71461015057806306fdde0314610185578063081812fc146101a7578063095ea7b3146101df578063155dd5ee1461020157806323b872dd14610221575b600080fd5b34801561015c57600080fd5b5061017061016b3660046117a8565b610491565b60405190151581526020015b60405180910390f35b34801561019157600080fd5b5061019a6104e3565b60405161017c9190611824565b3480156101b357600080fd5b506101c76101c2366004611837565b610575565b6040516001600160a01b03909116815260200161017c565b3480156101eb57600080fd5b506101ff6101fa36600461186c565b61059c565b005b34801561020d57600080fd5b506101ff61021c366004611837565b6106b7565b34801561022d57600080fd5b506101ff61023c366004611896565b6106f0565b34801561024d57600080fd5b50600a546001600160a01b03166101c7565b34801561026b57600080fd5b506101ff61027a366004611896565b610769565b34801561028b57600080fd5b5061017061029a366004611837565b610784565b3480156102ab57600080fd5b506101ff6102ba3660046118d2565b6107a3565b3480156102cb57600080fd5b506101ff6102da366004611837565b6107cd565b3480156102eb57600080fd5b506101c76102fa366004611837565b610887565b34801561030b57600080fd5b5061031f61031a3660046118d2565b6108e7565b60405190815260200161017c565b34801561033957600080fd5b506101ff61096d565b34801561034e57600080fd5b506101ff61035d3660046118ed565b610981565b34801561036e57600080fd5b506007546001600160a01b03166101c7565b34801561038c57600080fd5b5061019a610a35565b3480156103a157600080fd5b506101ff6103b0366004611919565b610a44565b3480156103c157600080fd5b506101ff6103d03660046119e1565b610a4f565b3480156103e157600080fd5b506101c76103f0366004611837565b610a87565b34801561040157600080fd5b5061019a610410366004611837565b610abc565b6101ff610423366004611a5d565b610b04565b34801561043457600080fd5b50610170610443366004611ab6565b6001600160a01b03918216600090815260056020908152604080832093909416825291909152205460ff1690565b34801561047d57600080fd5b506101ff61048c3660046118d2565b610de0565b60006001600160e01b031982166380ac58cd60e01b14806104c257506001600160e01b03198216635b5e139f60e01b145b806104dd57506301ffc9a760e01b6001600160e01b03198316145b92915050565b6060600080546104f290611ae0565b80601f016020809104026020016040519081016040528092919081815260200182805461051e90611ae0565b801561056b5780601f106105405761010080835404028352916020019161056b565b820191906000526020600020905b81548152906001019060200180831161054e57829003601f168201915b5050505050905090565b600061058082610e56565b506000908152600460205260409020546001600160a01b031690565b60006105a782610887565b9050806001600160a01b0316836001600160a01b0316141561061a5760405162461bcd60e51b815260206004820152602160248201527f4552433732313a20617070726f76616c20746f2063757272656e74206f776e656044820152603960f91b60648201526084015b60405180910390fd5b336001600160a01b038216148061063657506106368133610443565b6106a85760405162461bcd60e51b815260206004820152603e60248201527f4552433732313a20617070726f76652063616c6c6572206973206e6f7420746f60448201527f6b656e206f776e6572206e6f7220617070726f76656420666f7220616c6c00006064820152608401610611565b6106b28383610eb5565b505050565b6106bf610f23565b604051339082156108fc029083906000818181858888f193505050501580156106ec573d6000803e3d6000fd5b5050565b6106fa3382610f7d565b6107165760405162461bcd60e51b815260040161061190611b1b565b610721838383610ffc565b7fd5e6d26e46c1b4a57e0f23e05f934fd3ed3c2c8ff2a3564ddba5303692d9deed838361074d84610abc565b60405161075c93929190611b69565b60405180910390a1505050565b6106b283838360405180602001604052806000815250610a4f565b6000818152600260205260408120546001600160a01b031615156104dd565b6107ab610f23565b600a80546001600160a01b0319166001600160a01b0392909216919091179055565b336107d782610887565b6001600160a01b0316146108375760405162461bcd60e51b815260206004820152602160248201527f596f752063616e206f6e6c79206275726e20796f7572206f776e20746f6b656e6044820152607360f81b6064820152608401610611565b7fd5e6d26e46c1b4a57e0f23e05f934fd3ed3c2c8ff2a3564ddba5303692d9deed33600061086484610abc565b60405161087393929190611b69565b60405180910390a161088481611198565b50565b6000818152600260205260408120546001600160a01b0316806104dd5760405162461bcd60e51b8152602060048201526018602482015277115490cdcc8c4e881a5b9d985b1a59081d1bdad95b88125160421b6044820152606401610611565b60006001600160a01b0382166109515760405162461bcd60e51b815260206004820152602960248201527f4552433732313a2061646472657373207a65726f206973206e6f7420612076616044820152683634b21037bbb732b960b91b6064820152608401610611565b506001600160a01b031660009081526003602052604090205490565b610975610f23565b61097f60006111d8565b565b61098b3383610f7d565b6109ea5760405162461bcd60e51b815260206004820152602a60248201527f596f752063616e2774206368616e6765207265736f6c76657220666f7220746860448201526934b9903237b6b0b4b71760b11b6064820152608401610611565b80600960006109f885610abc565b80519060200120815260200190815260200160002060006101000a8154816001600160a01b0302191690836001600160a01b031602179055505050565b6060600180546104f290611ae0565b6106ec33838361122a565b610a593383610f7d565b610a755760405162461bcd60e51b815260040161061190611b1b565b610a81848484846112f9565b50505050565b600060096000610a9684610abc565b80516020918201208252810191909152604001600020546001600160a01b031692915050565b6060610ac782610e56565b6000828152600c60205260409020610add61132c565b604051602001610aee929190611bba565b6040516020818303038152906040529050919050565b60026008541415610b575760405162461bcd60e51b815260206004820152601f60248201527f5265656e7472616e637947756172643a207265656e7472616e742063616c6c006044820152606401610611565b6002600855600082610b6761132c565b604051602001610b78929190611c68565b60408051601f198184030181529181528151602092830120600081815260029093529120549091506001600160a01b031615610c015760405162461bcd60e51b815260206004820152602260248201527f5468697320646f6d61696e20697320616c726561647920726567697374657265604482015261321760f11b6064820152608401610611565b6000835111610c6d5760405162461bcd60e51b815260206004820152603260248201527f596f757220646f6d61696e206e616d652073686f756c642068617665206174206044820152713632b0b9ba10189031b430b930b1ba32b91760711b6064820152608401610611565b600a5460405163524f388960e01b81526000916001600160a01b03169063524f388990610c9e908790600401611824565b60206040518083038186803b158015610cb657600080fd5b505afa158015610cca573d6000803e3d6000fd5b505050506040513d601f19601f82011682018060405250810190610cee9190611ca4565b905080341015610d4a5760405162461bcd60e51b815260206004820152602160248201527f596f7520646964206e6f742070726f7669646520656e6f756768206d617469636044820152601760f91b6064820152608401610611565b610d54838361133b565b610d5e828561147d565b7fd5e6d26e46c1b4a57e0f23e05f934fd3ed3c2c8ff2a3564ddba5303692d9deed600084610d8b85610abc565b604051610d9a93929190611b69565b60405180910390a16040513390348084146108fc029190849003906000818181858888f19350505050158015610dd4573d6000803e3d6000fd5b50506001600855505050565b610de8610f23565b6001600160a01b038116610e4d5760405162461bcd60e51b815260206004820152602660248201527f4f776e61626c653a206e6577206f776e657220697320746865207a65726f206160448201526564647265737360d01b6064820152608401610611565b610884816111d8565b6000818152600260205260409020546001600160a01b03166108845760405162461bcd60e51b8152602060048201526018602482015277115490cdcc8c4e881a5b9d985b1a59081d1bdad95b88125160421b6044820152606401610611565b600081815260046020526040902080546001600160a01b0319166001600160a01b0384169081179091558190610eea82610887565b6001600160a01b03167f8c5be1e5ebec7d5bd14f71427d1e84f3dd0314c0f7b2291e5b200ac8c7c3b92560405160405180910390a45050565b6007546001600160a01b0316331461097f5760405162461bcd60e51b815260206004820181905260248201527f4f776e61626c653a2063616c6c6572206973206e6f7420746865206f776e65726044820152606401610611565b600080610f8983610887565b9050806001600160a01b0316846001600160a01b03161480610fd057506001600160a01b0380821660009081526005602090815260408083209388168352929052205460ff165b80610ff45750836001600160a01b0316610fe984610575565b6001600160a01b0316145b949350505050565b826001600160a01b031661100f82610887565b6001600160a01b0316146110735760405162461bcd60e51b815260206004820152602560248201527f4552433732313a207472616e736665722066726f6d20696e636f72726563742060448201526437bbb732b960d91b6064820152608401610611565b6001600160a01b0382166110d55760405162461bcd60e51b8152602060048201526024808201527f4552433732313a207472616e7366657220746f20746865207a65726f206164646044820152637265737360e01b6064820152608401610611565b6110e0600082610eb5565b6001600160a01b0383166000908152600360205260408120805460019290611109908490611cd3565b90915550506001600160a01b0382166000908152600360205260408120805460019290611137908490611cea565b909155505060008181526002602052604080822080546001600160a01b0319166001600160a01b0386811691821790925591518493918716917fddf252ad1be2c89b69c2b068fc378daa952ba7f163c4a11628f55a4df523b3ef91a4505050565b6111a181611517565b600081815260066020526040902080546111ba90611ae0565b159050610884576000818152600660205260408120610884916116bf565b600780546001600160a01b038381166001600160a01b0319831681179093556040519116919082907f8be0079c531659141344cd1fd0a4f28419497f9722a3daafe3b4186f6b6457e090600090a35050565b816001600160a01b0316836001600160a01b0316141561128c5760405162461bcd60e51b815260206004820152601960248201527f4552433732313a20617070726f766520746f2063616c6c6572000000000000006044820152606401610611565b6001600160a01b03838116600081815260056020908152604080832094871680845294825291829020805460ff191686151590811790915591519182527f17307eab39ab6107e8899845ad3d59bd9653f200f220920489ca2b5937696c31910160405180910390a3505050565b611304848484610ffc565b611310848484846115b2565b610a815760405162461bcd60e51b815260040161061190611d02565b6060600b80546104f290611ae0565b6001600160a01b0382166113915760405162461bcd60e51b815260206004820181905260248201527f4552433732313a206d696e7420746f20746865207a65726f20616464726573736044820152606401610611565b6000818152600260205260409020546001600160a01b0316156113f65760405162461bcd60e51b815260206004820152601c60248201527f4552433732313a20746f6b656e20616c7265616479206d696e746564000000006044820152606401610611565b6001600160a01b038216600090815260036020526040812080546001929061141f908490611cea565b909155505060008181526002602052604080822080546001600160a01b0319166001600160a01b03861690811790915590518392907fddf252ad1be2c89b69c2b068fc378daa952ba7f163c4a11628f55a4df523b3ef908290a45050565b6000828152600260205260409020546001600160a01b03166114f85760405162461bcd60e51b815260206004820152602e60248201527f45524337323155524953746f726167653a2055524920736574206f66206e6f6e60448201526d32bc34b9ba32b73a103a37b5b2b760911b6064820152608401610611565b6000828152600c6020908152604090912082516106b2928401906116f9565b600061152282610887565b905061152f600083610eb5565b6001600160a01b0381166000908152600360205260408120805460019290611558908490611cd3565b909155505060008281526002602052604080822080546001600160a01b0319169055518391906001600160a01b038416907fddf252ad1be2c89b69c2b068fc378daa952ba7f163c4a11628f55a4df523b3ef908390a45050565b60006001600160a01b0384163b156116b457604051630a85bd0160e11b81526001600160a01b0385169063150b7a02906115f6903390899088908890600401611d54565b602060405180830381600087803b15801561161057600080fd5b505af1925050508015611640575060408051601f3d908101601f1916820190925261163d91810190611d91565b60015b61169a573d80801561166e576040519150601f19603f3d011682016040523d82523d6000602084013e611673565b606091505b5080516116925760405162461bcd60e51b815260040161061190611d02565b805181602001fd5b6001600160e01b031916630a85bd0160e11b149050610ff4565b506001949350505050565b5080546116cb90611ae0565b6000825580601f106116db575050565b601f016020900490600052602060002090810190610884919061177d565b82805461170590611ae0565b90600052602060002090601f016020900481019282611727576000855561176d565b82601f1061174057805160ff191683800117855561176d565b8280016001018555821561176d579182015b8281111561176d578251825591602001919060010190611752565b5061177992915061177d565b5090565b5b80821115611779576000815560010161177e565b6001600160e01b03198116811461088457600080fd5b6000602082840312156117ba57600080fd5b81356117c581611792565b9392505050565b60005b838110156117e75781810151838201526020016117cf565b83811115610a815750506000910152565b600081518084526118108160208601602086016117cc565b601f01601f19169290920160200192915050565b6020815260006117c560208301846117f8565b60006020828403121561184957600080fd5b5035919050565b80356001600160a01b038116811461186757600080fd5b919050565b6000806040838503121561187f57600080fd5b61188883611850565b946020939093013593505050565b6000806000606084860312156118ab57600080fd5b6118b484611850565b92506118c260208501611850565b9150604084013590509250925092565b6000602082840312156118e457600080fd5b6117c582611850565b6000806040838503121561190057600080fd5b8235915061191060208401611850565b90509250929050565b6000806040838503121561192c57600080fd5b61193583611850565b91506020830135801515811461194a57600080fd5b809150509250929050565b634e487b7160e01b600052604160045260246000fd5b600067ffffffffffffffff8084111561198657611986611955565b604051601f8501601f19908116603f011681019082821181831017156119ae576119ae611955565b816040528093508581528686860111156119c757600080fd5b858560208301376000602087830101525050509392505050565b600080600080608085870312156119f757600080fd5b611a0085611850565b9350611a0e60208601611850565b925060408501359150606085013567ffffffffffffffff811115611a3157600080fd5b8501601f81018713611a4257600080fd5b611a518782356020840161196b565b91505092959194509250565b60008060408385031215611a7057600080fd5b823567ffffffffffffffff811115611a8757600080fd5b8301601f81018513611a9857600080fd5b611aa78582356020840161196b565b92505061191060208401611850565b60008060408385031215611ac957600080fd5b611ad283611850565b915061191060208401611850565b600181811c90821680611af457607f821691505b60208210811415611b1557634e487b7160e01b600052602260045260246000fd5b50919050565b6020808252602e908201527f4552433732313a2063616c6c6572206973206e6f7420746f6b656e206f776e6560408201526d1c881b9bdc88185c1c1c9bdd995960921b606082015260800190565b6001600160a01b03848116825283166020820152606060408201819052600090611b95908301846117f8565b95945050505050565b60008151611bb08185602086016117cc565b9290920192915050565b600080845481600182811c915080831680611bd657607f831692505b6020808410821415611bf657634e487b7160e01b86526022600452602486fd5b818015611c0a5760018114611c1b57611c48565b60ff19861689528489019650611c48565b60008b81526020902060005b86811015611c405781548b820152908501908301611c27565b505084890196505b505050505050611b95611c6282601760f91b815260010190565b85611b9e565b60008351611c7a8184602088016117cc565b601760f91b9083019081528351611c988160018401602088016117cc565b01600101949350505050565b600060208284031215611cb657600080fd5b5051919050565b634e487b7160e01b600052601160045260246000fd5b600082821015611ce557611ce5611cbd565b500390565b60008219821115611cfd57611cfd611cbd565b500190565b60208082526032908201527f4552433732313a207472616e7366657220746f206e6f6e20455243373231526560408201527131b2b4bb32b91034b6b83632b6b2b73a32b960711b606082015260800190565b6001600160a01b0385811682528416602082015260408101839052608060608201819052600090611d87908301846117f8565b9695505050505050565b600060208284031215611da357600080fd5b81516117c58161179256fea264697066735822122011a89ae5020f6ffafda11b891a7fbcf17486ba308dbdbd0dc22637584fe0fb5464736f6c63430008090033",
  "linkReferences": {},
  "deployedLinkReferences": {}
}